:0A0000000C9443000C9400000C94D3
:10000A0000000C9400000C9400000C9400000C9466
:10001A0000000C9400000C9400000C9476000C94E0
:10002A0000000C9470000C9400000C9400000C94D6
:10003A0000000C9400000C9400000C9400000C9436
:10004A0000000C9400000C9400001027E8036400E0
:10005A000A00010000100001100001000000000069
:10006A00000001002D4E414E00494E460000060098
:10007A0004006600010066026C000000F894EE2796
:10008A00ECBBF1E0FBBFEBBFE5BF8DE0A2E0BB2715
:10009A00ED938A95E9F780E098E0A0E6ED93019761
:1000AA00E9F7E8E7F0E085919591009761F0A5916D
:1000BA00B59105901590BF01F00105900D92019739
:1000CA00E1F7FB01F0CFEFE5EDBFE8E0EEBFC0E6F8
:1000DA00D2E00C947901A89B02C0A89801C0A89A02
:1000EA001895EA93EFB7EA93E0E0E3BFEEBDE9BF04
:1000FA00F894E991EFBFE9911895AA93A881AA30DB
:10010A0009F065C08614970429F5E8E4ECB95D9B0B
:10011A00FECFE1E6ECB95D9BFECFEDE6ECB95D9B67
:10012A00FECFE9E6ECB95D9BFECFE4E6ECB95D9B58
:10013A00FECFE2E5ECB95D9BFECFE5E6ECB95D9B4F
:10014A00FECFEAE7ECB95D9BFECFE1E6ECB95D9B39
:10015A00FECF3CC0E2E0E41531F5ECE4ECB95D9B7E
:10016A00FECFEFE4ECB95D9BFECFE3E4ECB95D9B17
:10017A00FECFEBE4ECB95D9BFECFE2E0E3BFE0E04B
:10018A00E2BFECBFEFBDE5E0EEBDE4EAEDBDE3E7BB
:10019A00ECBDE0E0E7BDE6BDEBBDEABDE9BDE8BD0B
:1001AA00E5E0E9BF13C0E6E4ECB95D9BFECFE1E40C
:1001BA00ECB95D9BFECFE9E4ECB95D9BFECFECE4C4
:1001CA00ECB95D9BFECF43946624772416C0A881C0
:1001DA00AB3099F0E3E0E41581F0F301AAE0B0E076
:1001EA000E943A02DF01E881F0E0EA0FFB1F3F01BB
:1001FA00E881E05DECB95D9BFECF21960895E2E3CC
:10020A005E2EEEEFEBBBB09906C00E941A02B099BF
:10021A0002C0E1E05E2EB19906C00E941A02B199AD
:10022A0002C0E4E05E2EB29906C00E941A02B29998
:10023A0002C0E7E05E2EB39906C00E941A02B39983
:10024A0002C0EAE05E2EEDEFEBBBB09906C00E9459
:10025A001A02B09902C0E2E05E2EB19906C00E946D
:10026A001A02B19902C0E5E05E2EB29906C00E9458
:10027A001A02B29902C0E8E05E2EB39904C00E9445
:10028A001A02B39B5524EBEFEBBBB09906C00E9450
:10029A001A02B09902C0E3E05E2EB19906C00E942C
:1002AA001A02B19902C0E6E05E2EB29906C00E9417
:1002BA001A02B29902C0E9E05E2EB39906C00E9402
:1002CA001A02B39902C0EBE05E2EE2E3E51511F0E3
:1002DA00A52D13DFE0EFEBBB0895369A349BFECFD2
:1002EA00349AC5B0E4B10895E7E0EABBE0E0EBBBBD
:1002FA00E7BBEFE0E8BBE1E0E4BBE0E0E5BBE1BB84
:10030A00E2BBEBB9E8E0EAB9E6E8E0BDE0E0E0BD6F
:10031A00E3E3E9B9E3E4E7B9E6E8E6B9E0E0E09364
:10032A006402E0936502DD24E0E1DE16A8F4E091C0
:10033A006402F0916502EE0FFF1FFF93EF93CDDF8A
:10034A00E170AF91BF91F0E0EA2BFB2BE0936402DE
:10035A00F0936502D394E8CFA0916402B09165024C
:10036A000E94F9010E940302DF01EFE0F7E20E9416
:10037A0078024F0154017894DD24E4E0DE16A0F4FB
:10038A00ED2DF0E0E05AFD4FBF01D501EAE0F0E0C3
:10039A000E947502DB01EC93D501EAE0F0E00E94CD
:1003AA0062025F01D394E9CFDD24E4E0DE1688F42B
:1003BA00ED2DF0E0A3E0B0E00E948602EA1BFB0B01
:1003CA00E05AFD4FE081E05DECB95D9BFECFD3942E
:1003DA00ECCFE6B3EF70EF3029F011DFA8ECB0E014
:1003EA000E942702F6CFFFCFBA93AA93E881F98138
:1003FA000E9435020E941E0222960895E09166022A
:10040A00F09167026091680270916902ADE6BEE4FC
:10041A0086EC91E40E944202EE59F8486F4F7F4FF2
:10042A000E941E02FB01FF770895A4E6B0E00C9437
:10043A002702E0936602F093670260936802709362
:10044A0069020895109639F080ED97E00197F1F767
:10045A00A8951197C9F70895F195E195F040089587
:10046A006F2F660F660B762F0895FA9FF02DEB9F7C
:10047A00F00DEA9FE02DF10D08957A9F702D6B9F84
:10048A00700DF89F700DE99F700D6A9F602D710DB8
:10049A00FB9F600D711DE89F600D711D8827FA9FF3
:1004AA00F02D610D781FEB9FF00D611D781FEA9FFB
:1004BA00E02DF10D681F781F08950024112490E1A2
:1004CA00AA0FBB1F001C111C0E1A1F0A18F40E0ECD
:1004DA001F1E01C0A1609A9599F7FD01D0010895E8
:1004EA00ECDFFD010895E894B7FF04C0A095B0952C
:1004FA0011966894F7FDB0DFE0DFFD010EF4ACDF82
:10050A0008951B2EBF2FF12D1A2EAE2FE12D08951F
:00000001FF
