:0C0000000C9433000C9400000C940000E1
:10000C000C9400000C9400000C9400000C94000064
:10001C000C9400000C9400000C9400000C94000054
:10002C000C9400000C9400000C944E000C940000F6
:10003C000C9400000C9400000C9400000C94000034
:10004C000C9400000C9400001027E80364000A00D4
:10005C0001000010000110000100F894EE27ECBB29
:10006C00F1E0FBBFEBBFE5BF8DE0A2E0BB27ED935A
:10007C008A95E9F780E098E0A0E6ED930197E9F71F
:10008C00EFE5EDBFE8E0EEBFC0E6D2E00C94600017
:10009C00EA93EFB7EA931A930A931BB10CB1E12FD1
:1000AC00EC7111F40FB90BBB09911991E991EFBFE8
:1000BC00E9911895EFEFEABBE0E0EBBBE0EBE7BBB7
:1000CC00E0E0E8BBE4BBE5BBE1BBE2BBE3BFE2BF06
:1000DC00ECBFEFBDEEBDEDBDECBDE7BDE6BDEBBDD0
:1000EC00EABDE9BDE8BDE2BDE5BDE4BDE3BDE9BFE8
:1000FC00E5BFE4BFEBB9E0E9EAB9E6E8E0BDE0E072
:10010C00E0BDE7E6E9B9E0E8E8B9E0E0E0BFE6B970
:10011C00E0E5EDB9E0E0EEB9E6BF7894FFCFFFCFB4
:00000001FF
