:0C0000000C943F000C9400000C940000D5
:10000C000C9400000C9400000C9400000C94000064
:10001C000C9400000C9400000C9400000C94000054
:10002C000C9400000C9400000C946C000C940000D8
:10003C000C9400000C9400000C9400000C94000034
:10004C000C9400000C9400001027E80364000A00D4
:10005C00010000100001100001000000393733339B
:10006C0030303200010005006600070067026800AE
:10007C000000F894EE27ECBBF1E0FBBFEBBFE5BF53
:10008C008DE0A2E0BB27ED938A95E9F780E098E03C
:10009C00A0E6ED930197E9F7E0E7F0E08591959103
:1000AC00009761F0A591B59105901590BF01F001F5
:1000BC0005900D920197E1F7FB01F0CFEFE5EDBF55
:1000CC00E8E0EEBFC0E6D2E00C94CF000A92AA930F
:1000DC00BA93EA93FA93EFB7EA931A930A931BB184
:1000EC000CB1E12FEC7109F04AC00D3019F1083058
:1000FC0011F45A941EC0E7E0E515A9F4E6E05E2E73
:10010C0066247724E6E0F0E06E167F0664F4D301F3
:10011C00A05ABD4FF301EF59FD4FE081EC93F30171
:10012C0031963F01EFCFE52DF0E0E05AFD4F008313
:10013C00539425C02197E0E0E88366247724E7E018
:10014C00F0E06E167F069CF4A0E6B2E0A60DB71D9B
:10015C000C90A7E6B2E0A60DB71DEC91E01519F0D6
:10016C00E1E0E88304C0F30131963F01E8CFE88178
:10017C00E03011F4E5E501C0EAEAEFB92196099106
:10018C001991E991EFBFF991E991B991A991099070
:10019C001895E0E0EABBEBBBE0EBE7BBE0E0E8BBCB
:1001AC00E4BBE5BBE1BBE2BBEBB9E0E9EAB9E6E8ED
:1001BC00E0BDE0E0E0BDE3E3E9B9E0E8E8B9E0E0A8
:1001CC00E0BFE0E5EDB9E0E0EEB97894FFCFFFCF0A
:00000001FF
