:0E0000000C9446000C9400000C9400000C942C
:10000E0000000C9400000C9400000C9400000C9462
:10001E0000000C9400000C9400000C9400000C9452
:10002E0000000C9490000C9400000C9400000C94B2
:10003E0000000C9400000C9400000C9400000C9432
:10004E0000000C94000057414954494E4700486146
:10005E006D696472657A610041626F6F65695752AE
:10006E004F4E4700070060025400090068025C0012
:10007E00060072026600050079026C000000F8941A
:10008E00EE27ECBBF1E0FBBFEBBFE5BF8DE0A2E0DE
:10009E00BB27ED938A95E9F780E098E0A0E6ED9313
:1000AE000197E9F7E2E7F0E085919591009761F00D
:1000BE00A591B59105901590BF01F00105900D9297
:1000CE000197E1F7FB01F0CFEFE5EDBFE8E0EEBF02
:1000DE00C0E6D2E00C94D300AA93E881E2BBA898C4
:1000EE0004C0AA93E881E2BBA89AA998AA98A2E0B4
:1000FE00B0E00E940D01AA9AA898A9982196089599
:10010E00A8E3EADFACE0E8DFA6E0E6DFA1E0E4DFAB
:10011E0008950A921A92FA926A937A938A939A930C
:10012E00AA93BA93EA93FA93EFB7EA931A931FB18D
:10013E001535B1F4A1E058D0A8E6B2E059D029F0B7
:10014E00A8E6B2E05AD05DD0F7CFA0EC4DD0A2E732
:10015E00B2E04ED029F0A2E7B2E04FD052D0F7CFA6
:10016E001A3A59F4A1E040D0A9E7B2E041D029F003
:10017E00A9E7B2E042D045D0F7CF1991E991EFBF90
:10018E00F991E991B991A991999189917991699191
:10019E00F990199009901895E0E0EABBEBBBE0E40A
:1001AE00E7BBE0E0E8BBE7E0E4BBE4E0E5BBEFEF94
:1001BE00E1BBE0E0E2BBE0E8E8B9E0E0E0BFE0ECA4
:1001CE00EDB9E0E0EEB9EEB1EFB1789499DF4424E9
:1001DE005524A0E6B2E00CD029F0A0E6B2E00DD096
:1001EE0010D0F7CFFFCFFFCF77DF442455240895EB
:1001FE00A40DB51DEC91E0300895A40DB51DAC9184
:10020E0070CFF20131962F0131970895109639F083
:10021E0080ED97E00197F1F7A8951197C9F708952A
:00000001FF
