:0E0000000C9430000C9400000C9400000C9442
:10000E0000000C9400000C9400000C9400000C9462
:10001E005D000C9400000C9400000C9400000C94F5
:10002E0000000C9400000C9400000C9400000C9442
:10003E0000000C9400000C9400000C9400000C9432
:10004E0000000C94000000000000040004005400A6
:10005E000000F894EE27ECBBF1E0FBBFEBBFE5BF71
:10006E008DE0A2E0BB27ED938A95E9F780E098E05A
:10007E00A0E6ED930197E9F7E8E5F0E0859195911B
:10008E00009761F0A591B59105901590BF01F00113
:10009E0005900D920197E1F7FB01F0CFEFE5EDBF73
:1000AE00E8E0EEBFC0E6D2E00C949A00EA93EFB718
:1000BE00EA93E1E0E51579F44A94442031F45524AD
:1000CE00E2E07E2E9098919805C0919B02C0919887
:1000DE0001C0919A0DC07A94772051F4E1E05E2E22
:1000EE00E6E04E2E909A919B02C0919801C0919A93
:1000FE00E991EFBFE9911895E1E05E2EE0E0F0E0C6
:10010E00FDBDECBDEDE0EEBD909AE6E04E2E919B6E
:10011E0002C0919801C0919A08955524E8E0EEBD71
:10012E00909891980895889A899AE0EDF3E0FBBD36
:10013E00EABDE0E0EFBDE8E0EEBDE0E1E9BF7894B6
:10014E00A0E0C999A1E0E1E00E94CA000E2EA62D02
:10015E00E0E00E94CA00E02119F0CEDFE1E06E2E51
:10016E00A0E0CA99A1E0E1E00E94CA000E2EA0E034
:10017E00C999A1E0E0E00E94CA00E02111F0CDDFB4
:10018E006624DECFFFCFEA17E1E009F0EE270895EF
:00000001FF
