:040000000C942F002D
:100004000C9400000C9400000C9400000C9400006C
:100014000C945C000C9400000C9400000C94000000
:100024000C9400000C9400000C9400000C9400004C
:100034000C9400000C9400000C9400000C9400003C
:100044000C9400000C947A000C9400000C940000B2
:1000540000000200040054000000F894EE27ECBBFA
:10006400F1E0FBBFEBBFE5BF8DE0A2E0BB27ED9362
:100074008A95E9F780E098E0A0E6ED930197E9F727
:10008400E6E5F0E085919591009761F0A591B59131
:1000940005901590BF01F00105900D920197E1F7CD
:1000A400FB01F0CFEFE5EDBFE8E0EEBFC0E6D2E044
:1000B4000C947F00EA93EFB7EA93EEE1E51599F427
:1000C400442049F4E3B5EF5FE3BDE3B5EF3F11F43A
:1000D400E1E04E2E07C0E3B5E150E3BDE3B5E03007
:1000E40009F4442455245394E991EFBFE9911895F8
:1000F400EA93E3B5EBBBE9911895EFEFEABBE0E0D7
:10010400EBBBE7BBE8BBE4BBE5BBE0E8E1BBE0E09D
:10011400E2BBE2BDE9E6E5BDE0E0E4BDE3BDE0E469
:10012400E9BFE8E0E8B9E0E0E0BF7894FFCFFFCFB3
:00000001FF
