:040000000C942F002D
:100004000C946B000C9400000C9400000C94000001
:100014000C9400000C9400000C947D000C940000DF
:100024000C9400000C9400000C9400000C9400004C
:100034000C9400000C9400000C9400000C9400003C
:100044000C9400000C9400000C9400000C9400002C
:1000540000000200040054000000F894EE27ECBBFA
:10006400F1E0FBBFEBBFE5BF8DE0A2E0BB27ED9362
:100074008A95E9F780E098E0A0E6ED930197E9F727
:10008400E6E5F0E085919591009761F0A591B59131
:1000940005901590BF01F00105900D920197E1F7CD
:1000A400FB01F0CFEFE5EDBFE8E0EEBFC0E6D2E044
:1000B4000C949300A42DB0E0EAE0F0E00E94D1009B
:1000C400EBBBA42DBB27EAE0F0E00E94D600E5BB21
:1000D400089540D0552059F4E1E05E2E4424E0E038
:1000E400F0E0FDBDECBDEDE0EEBDE4DF03C0552462
:1000F400E8E0EEBD08C02ED0E3E64E1610F44394BB
:1001040001C04424D7DFE991EFBFF991E991B99196
:10011400A9919991899179916991F990199009908E
:100124001895EFE0EABBE4BBE0E0E1BBE4E0E2BB4E
:10013400E2E0E5BFE0E4EBBFE0EDF3E0FBBDEABDE8
:10014400E0E0EFBDE8E0EEBDE0E1E9BF7894B2DFC6
:10015400FFCFFFCF0A921A92FA926A937A938A9304
:100164009A93AA93BA93EA93FA93EFB7EA9308950A
:10017400F195E195F04008950024112490E1AA0F2F
:10018400BB1F001C111C0E1A1F0A18F40E0E1F1E92
:1001940001C0A1609A9599F7FD01D001089512D08C
:1001A400EBDF0EF4E5DF0895E894B7FF04C0A095F3
:1001B400B09511966894F7FDDBDFDEDFFD010EF4E8
:1001C400D7DF0895E894F7FF02C0D2DF6894B7FF41
:1001D40006C0A095B095119600F8039400FA08950E
:00000001FF
