:100000000C9433000C9400000C9400000C9400003D
:100010000C9400000C9400000C9400000C944E0012
:100020000C9400000C9400000C9400000C94000050
:100030000C9400000C9400000C9400000C94000040
:100040000C9400000C9400000C9400000C94000030
:100050000C9400001027E80364000A00010000105F
:10006000000110000100F894EE27ECBBF1E0FBBFAB
:10007000EBBFE5BF8DE0A2E0BB27ED938A95E9F7E2
:1000800080E098E0A0E6ED930197E9F7EFE5EDBF9A
:10009000E8E0EEBFC0E6D2E00C9458001A9311E4F9
:1000A0001CB9D89B02C0D89801C0D89A199118954C
:1000B000E1E0EABBE0E0EBBBE7BBE8BBE4BBE5BBF0
:1000C000E1BBE2BBE3BFE2BFECBFEFBDE9E0EEBDE9
:1000D000E0E0EDBDECBDE7BDE6BDECE0EBBDECE185
:1000E000EABDE0E0E9BDE8BDE2BDE5BDE4BDE3BDDC
:1000F000E0E1E9BFE0E0E5BFE4BFEBB9E8E0EAB981
:10010000E6E8E0BDE0E0E0BDECE0E9B9E0E8E8B950
:10011000E0E0E0BFE6B9EDB9E6BF7894FFCFFFCFEE
:00000001FF
