:0A0000000C942F000C9400000C94E7
:10000A0000000C9400000C9400000C9400000C9466
:10001A0000000C9400000C9400000C9400000C9456
:10002A0000000C9400000C945C000C9400000C94EA
:10003A0000000C9400000C9400000C9400000C9436
:10004A0000000C9400000C94000000000100050060
:10005A0054000000F894EE27ECBBF1E0FBBFEBBFC5
:10006A00E5BF8DE0A2E0BB27ED938A95E9F780E032
:10007A0098E0A0E6ED930197E9F7E6E5F0E08591CF
:10008A009591009761F0A591B59105901590BF01E2
:10009A00F00105900D920197E1F7FB01F0CFEFE532
:1000AA00EDBFE8E0EEBFC0E6D2E00C949800EA9318
:1000BA00EFB7EA93C49AC39A552031F4C498E3E699
:1000CA00EFB9E1E05E2E2BC0E1E0E51531F4C4980A
:1000DA00E3B3EFB9E2E05E2E22C0E2E0E51531F4C7
:1000EA00C498E0B3EFB9E3E05E2E19C0E3E0E5158A
:1000FA0031F4C398E3E6EFB9E4E05E2E10C0E4E021
:10010A00E51531F4C398E3B3EFB9E5E05E2E07C015
:10011A00E5E0E51521F4C398E0B3EFB95524E99178
:10012A00EFBFE9911895E0E0EABBEBBBE8EBE7BB70
:10013A00E0E0E8BBE4BBE5BBE1BBE2BBE3BFE2BF97
:10014A00ECBFEFBDEEBDEDBDECBDE7BDE6BDEBBD61
:10015A00EABDE9BDE8BDE2BDE5BDE4BDE3BDE9BF79
:10016A00E5BFE4BFEAB9E0E8E8B9E0E0E0BFE6B934
:10017A00E0EDEDB9E1E0EEB9EEB1EFB1E0E0E6BFF6
:10018A007894C498E3E6EFB9E1E05E2EFFCFFFCFA3
:00000001FF
