:060000000C942F000C948B
:100006006B000C9400000C9400000C9400000C94FF
:1000160000000C9400000C9476000C9400000C94E4
:1000260000000C9400000C9400000C9400000C944A
:1000360000000C9400000C9400000C9400000C943A
:1000460000000C9400000C9400000C9400000000CA
:100056000200040054000000F894EE27ECBBF1E027
:10006600FBBFEBBFE5BF8DE0A2E0BB27ED938A9512
:10007600E9F780E098E0A0E6ED930197E9F7E6E579
:10008600F0E085919591009761F0A591B591059065
:100096001590BF01F00105900D920197E1F7FB0164
:1000A600F0CFEFE5EDBFE8E0EEBFC0E6D2E00C949E
:1000B6008A00A52DB0E0EAE0F0E00E94D200EBBB9A
:1000C600A52DBB27EAE0F0E00E94D700E5BB089526
:1000D60041D0EFEFE8BB5524E0E0F0E0FDBDECBD1C
:1000E600EDE0EEBD05C036D0E8E0EEBDE0E0E8BBF1
:1000F600E0DFE991EFBFF991E991B991A991999161
:10010600899179916991F990199009901895EFE084
:10011600EABBE4BBE0E0E1BBEFEFE7BBE4E4E2BB54
:10012600E2E0E5BFE0E4EBBFE1EEF4EEFBBDEABDE5
:10013600E0E0EFBDE8E0EEBDE0E1E9BF7894869B44
:1001460006C0442019F45394E1E04E2E01C0442425
:10015600F6CFFFCF0A921A92FA926A937A938A930B
:100166009A93AA93BA93EA93FA93EFB7EA93089508
:10017600F195E195F04008950024112490E1AA0F2D
:10018600BB1F001C111C0E1A1F0A18F40E0E1F1E90
:1001960001C0A1609A9599F7FD01D001089512D08A
:1001A600EBDF0EF4E5DF0895E894B7FF04C0A095F1
:1001B600B09511966894F7FDDBDFDEDFFD010EF4E6
:1001C600D7DF0895E894F7FF02C0D2DF6894B7FF3F
:1001D60006C0A095B095119600F8039400FA08950C
:00000001FF
