:0C0000000C9433000C9400000C940000E1
:10000C000C9400000C9400000C9400000C94000064
:10001C000C9400000C9400000C9400000C94000054
:10002C000C9400000C9400000C9400000C94000044
:10003C000C9400000C9400000C9400000C94000034
:10004C000C9400000C940000000000000000000064
:10005C0000000A00040054000000F894EE27ECBBEA
:10006C00F1E0FBBFEBBFE5BF8DE0A2E0BB27ED935A
:10007C008A95E9F780E098E0A0E6ED930197E9F71F
:10008C00EEE5F0E085919591009761F0A591B59121
:10009C0005901590BF01F00105900D920197E1F7C5
:1000AC00FB01F0CFEFE5EDBFE8E0EEBFC0E6D2E03C
:1000BC000C949501AA93E881E2BBA8984BD1B0C0EF
:1000CC00AA93E881E2BBA89A45D1AAC0A8E3F2DFC3
:1000DC00ACE0F0DFA6E0EEDFA1E0ECDF0895BA9330
:1000EC00AA93FADFA981AA2312F4ADE2E9DFDD2499
:1000FC00E881F9813097B9F0ED2DF0E0E05AFD4F31
:10010C00BF01A881B981EAE0F0E00E94FB01DB01AC
:10011C00EC93A881B981EAE0F0E00E94F601E88353
:10012C00F983D394E5CFAA24AD14A0F4AD2DBB274D
:10013C00EA2DF0E0AE1BBF0BE1E0F0E00E941702ED
:10014C00EA1BFB0BE05AFD4FE081E05DAE2FB8DF00
:10015C00A394EACF22960895AA93A881A431E0F043
:10016C00E1E04E2EB880E4E1EB1519F4B5DFADEF0C
:10017C00A7DFE5E1EB1519F4AFDFAAE2A1DFE6E1B9
:10018C00EB1519F4A9DFADE29BDFE7E1EB1519F4F0
:10019C00A3DFABE295DF44C0A881A33141F49CDF1F
:1001AC0066247724882499244424BB2439C0A8814C
:1001BC00A23139F5E4E1EB1539F4F401D3010E94D5
:1001CC00F6013F0188249924E5E1EB1539F4F4019B
:1001DC00D3010E94DE013F0188249924E6E1EB154E
:1001EC0021F46818790888249924E7E1EB1521F4A7
:1001FC00680C791C88249924D30171DF4424BB2416
:10020C000FC0A881AA3060F4442029F4F301ACD0CB
:10021C003F01D30104C0F401A7D04F01D4015FDF2B
:10022C0021960895E2E35E2EEEEFEBBBB09905C08C
:10023C00A5D0B09902C0E7E05E2EB19905C09ED062
:10024C00B19902C0E8E05E2EB29905C097D0B29980
:10025C0002C0E9E05E2EB39905C090D0B39902C0FC
:10026C00E4E15E2EEDEFEBBBB09905C087D0B09901
:10027C0002C0E4E05E2EB19905C080D0B19902C0F5
:10028C00E5E05E2EB29905C079D0B29902C0E6E0E5
:10029C005E2EB39905C072D0B39902C0E5E15E2E13
:1002AC00EBEFEBBBB09905C069D0B09902C0E1E0AF
:1002BC005E2EB19905C062D0B19902C0E2E05E2E0B
:1002CC00B29905C05BD0B29902C0E3E05E2EB3993F
:1002DC0005C054D0B39902C0E6E15E2EE7EFEBBB4C
:1002EC00B09905C04BD0B09902C0E3E15E2EB19934
:1002FC0003C044D0B19B5524B29905C03FD0B299EC
:10030C0002C0E2E15E2EB39905C038D0B39902C0A9
:10031C00E7E15E2EA52D20DFE0EFEBBB0895EFE0CB
:10032C00EABBE0E0EBBBE7BBEFE0E8BBE7E0E4BB3C
:10033C00E4E0E5BBEFEFE1BBE0E0E2BBC7DEE6B338
:10034C00EF70EF3029F06EDFA8ECB0E00E94C8012E
:10035C00F6CFFFCFA998AA98A2E0B0E00E94C801FE
:10036C00AA9AA898A9980895AAE0B0E00E94DE0184
:10037C00DF01E881F0E0EA0FFB1F0895A4E6B0E08E
:10038C000C94C801109639F080ED97E00197F1F7C5
:10039C00A8951197C9F70895F195E195F040089546
:1003AC00FA9FF02DEB9FF00DEA9FE02DF10D0895D3
:1003BC002AD0F6DF0EF4F0DF08950024112490E12A
:1003CC00AA0FBB1F001C111C0E1A1F0A18F40E0ECC
:1003DC001F1E01C0A1609A9599F7FD01D0010895E7
:1003EC0012D0EBDF0EF4D8DF0895E894B7FF04C009
:1003FC00A095B09511966894F7FDCEDFDEDFFD0178
:10040C000EF4CADF0895E894F7FF02C0C5DF6894C4
:10041C00B7FF06C0A095B095119600F8039400FAAA
:10042C0008951B2EBF2FF12D1A2EAE2FE12D0895FE
:00000001FF
