:040000000C942F002D
:100004000C9400000C9400000C9400000C9400006C
:100014000C9400000C9400000C9400000C9400005C
:100024000C9400000C9400000C9400000C9400004C
:100034000C9400000C9400000C9400000C947200CA
:100044000C9400000C9400000C9400000C9400002C
:1000540000000100050054000000F894EE27ECBBFA
:10006400F1E0FBBFEBBFE5BF8DE0A2E0BB27ED9362
:100074008A95E9F780E098E0A0E6ED930197E9F727
:10008400E6E5F0E085919591009761F0A591B59131
:1000940005901590BF01F00105900D920197E1F7CD
:1000A400FB01F0CFEFE5EDBFE8E0EEBFC0E6D2E044
:1000B4000C949E00A52DB0E0EAE0F0E00E94C90097
:1000C4004E2E48BAA52DBB27EAE0F0E00E94CE00F0
:1000D4007E2EE42DA0E1EA02F001E729E5BB0895B4
:1000E4000A921A92FA926A937A938A939A93AA93A7
:1000F400BA93EA93FA93EFB7EA9385B09924F4019B
:10010400A4E6B0E00E94AE00EF2FF0E04F01582CBF
:10011400D1DFD99B02C0D99801C0D99AE991EFBF28
:10012400F991E991B991A9919991899179916991FB
:10013400F990199009901895D098EFEFE4BBD19AF3
:10014400E7BBE0E6E7B9EEEEE6B97894FFCFFFCF80
:10015400F195E195F0400895FA9FF02DEB9FF00D95
:10016400EA9FE02DF10D08950024112490E1AA0FD7
:10017400BB1F001C111C0E1A1F0A18F40E0E1F1EA2
:1001840001C0A1609A9599F7FD01D001089512D09C
:10019400EBDF0EF4DDDF0895E894B7FF04C0A0950B
:1001A400B09511966894F7FDD3DFDEDFFD010EF400
:1001B400CFDF0895E894F7FF02C0CADF6894B7FF61
:1001C40006C0A095B095119600F8039400FA08951E
:00000001FF
