:0E0000000C9432000C9400000C9400000C9440
:10000E0000000C9400000C9400000C9400000C9462
:10001E0000000C9400000C9400000C94B3000C949F
:10002E0000000C9400000C9400000C9400000C9442
:10003E0000000C9400000C9400000C9400000C9432
:10004E0000000C94000000000000000000000800FA
:10005E00040054000000F894EE27ECBBF1E0FBBF67
:10006E00EBBFE5BF8DE0A2E0BB27ED938A95E9F7E4
:10007E0080E098E0A0E6ED930197E9F7ECE5F0E07B
:10008E0085919591009761F0A591B5910590159088
:10009E00BF01F00105900D920197E1F7FB01F0CF42
:1000AE00EFE5EDBFE8E0EEBFC0E6D2E00C94F20063
:1000BE00AA93E881E2BBA89804C0AA93E881E2BBA8
:1000CE00A89AA998AA98A2E0B0E00E941801AA9A4C
:1000DE00A898A99821960895A8E3EADFACE0E8DF96
:1000EE00A6E0E6DFA1E0E4DF0895BA93AA934424E4
:1000FE00E881F9813097B9F0E42DF0E0E05AFD4F38
:10010E00BF01A881B981EAE0F0E00E943501DB0170
:10011E00EC93A881B981EAE0F0E00E942201E88325
:10012E00F9834394E5CF55245414A0F4A42DBB2792
:10013E00E52DF0E0AE1BBF0BE1E0F0E00E943801D0
:10014E00EA1BFB0BE05AFD4FE081E05DAE2FB5DF01
:10015E005394EACF229608950A921A92FA926A93CB
:10016E007A938A939A93AA93BA93EA93FA93EFB7F0
:10017E00EA93EDE7EB1501F5BB24A1E099DF7CB422
:10018E006DB4A72DBB27EE27A60DBE1FFD01FE2FBA
:10019E00E0E04F01D401E8EEF3E00E942201DF011E
:1001AE00A4DFD401E8EEF3E00E943501DF019DDF0C
:1001BE00E0E0EDBDECBD01C0B394E991EFBFF99164
:1001CE00E991B991A9919991899179916991F99052
:1001DE00199009901895E0E0EABBEBBBE7BBE8BBD2
:1001EE00E7E0E4BBE4E0E5BBEFEFE1BBE0E0E2BB60
:1001FE00ECE0E3BFE0E0E2BFE9EFECBFE0E0EFBD33
:10020E00E6E0EEBDE0E0EDBDECBDE7BDE6BDEBBD6D
:10021E00EABDE9BDE8BDE2E0E9BF78945DDFFFCF5E
:10022E00FFCF109639F080ED97E00197F1F7A89582
:10023E001197C9F708950024112490E1AA0FBB1F4E
:10024E00001C111C0E1A1F0A18F40E0E1F1E01C0E0
:10025E00A1609A9599F7FD01D0010895ECDFFD019B
:10026E0008951B2EBF2FF12D1A2EAE2FE12D0895BE
:00000001FF
