:0C0000000C9433000C9400000C940000E1
:10000C000C9400000C9400000C9400000C94000064
:10001C000C9400000C9400000C9400000C94000054
:10002C000C9400000C9400000C944E000C940000F6
:10003C000C9400000C9400000C9400000C94000034
:10004C000C9400000C9400001027E80364000A00D4
:10005C0001000010000110000100F894EE27ECBB29
:10006C00F1E0FBBFEBBFE5BF8DE0A2E0BB27ED935A
:10007C008A95E9F780E098E0A0E6ED930197E9F71F
:10008C00EFE5EDBFE8E0EEBFC0E6D2E00C94650012
:10009C00EA93EFB7EA931A930A931BB10CB1E12FD1
:1000AC00EC7139F4013610F00B3708F002C0005235
:1000BC000CB909911991E991EFBFE9911895E0E01C
:1000CC00EBB9E8E9EAB9E6E8E0BDE0E0E0BDECE078
:1000DC00E9B9E0E8E8B9E0E0E0BF7894FFCFFFCF02
:00000001FF
