:020000000C945E
:100002002F000C9400000C9400000C9400000C943F
:1000120000000C9400000C9400000C9400000C945E
:1000220000000C9400000C9400000C9400000C944E
:1000320000000C9400000C9400000C9400000C943E
:1000420000000C9400000C9400000C9400000C942E
:10005200000000000100070054000000F894EE27A1
:10006200ECBBF1E0FBBFEBBFE5BF8DE0A2E0BB273D
:10007200ED938A95E9F780E098E0A0E6ED93019789
:10008200E9F7E6E5F0E085919591009761F0A59199
:10009200B59105901590BF01F00105900D92019761
:1000A200E1F7FB01F0CFEFE5EDBFE8E0EEBFC0E620
:1000B200D2E00C940B01E0916002F0916102609138
:1000C2006202709163020E9467015E2EBBD0E0E083
:1000D200F0E060E271E40E94CE010E946701FF2716
:1000E20066277727F0E0DF01EAE0F0E00E9486026F
:1000F2004E2EE52DA0E1EA02F001E429E5BB0895C8
:10010200369A349BFECF349AE5B1A0E6B2E0FF27DF
:10011200662777270E94A0010E94940293D0E0E014
:10012200F0E060EA70E40E94CE01DF01CB01E0E082
:10013200F0E06FE773E40E941C02E0936002F09328
:1001420061026093620270936302B5DF0895EEEF7D
:10015200E2BB849907C07FD0849904C0849BFECF00
:10016200E1E07E2E859907C076D0859904C0859BF3
:10017200FECFE4E07E2E869907C06DD0869904C03A
:10018200869BFECFE7E07E2EEDEFE2BB849907C0AF
:1001920062D0849904C0849BFECFE2E07E2E8599D2
:1001A20007C059D0859904C0859BFECFE5E07E2E1D
:1001B200869906C050D0869903C0869BFECF7724CD
:1001C200EBEFE2BB849907C046D0849904C0849BBC
:1001D200FECFE3E07E2E859907C03DD0859904C00D
:1001E200859BFECFE6E07E2E869911C034D086999B
:1001F2000EC0869BFECFE72DE066E7B98BE18A95BC
:10020200F1F7979B02C0979801C0979A79DFE0EFC8
:10021200E2BB0895E0E0EABBEFEFE4BBEFE0E1BB55
:10022200E0EFE2BBE0E6E7B9E6E8E6B9E0B3E077A3
:10023200E03731F08CDF979B02C0979801C0979A04
:10024200F5CFFFCFA0916002B0916102809162026E
:10025200909163020895A4E6B0E00C9430011096E8
:1002620039F080ED97E00197F1F7A8951197C9F75A
:100272000895552342F4503811F4E0FF04C031963A
:10028200691F791F6BF050E8572711F45F9373C011
:100292005F3F31F0660F000C57956795752F0895F3
:1002A2005F9300200AF073C06CC050E8192E15222B
:1002B200880F991F9527550F879550E8072E05221D
:1002C200660F771F7527550F67950895689401C0CB
:1002D200E8945F93F2DF703818F07F3F08F44BC068
:1002E20056E1571BAAF4519558300EF4593030F0AC
:1002F200EFEFFFEF6FEF7FE777F91AC0772755230C
:10030200B9F0EE0FFF1F661F771F5A95D1F710C085
:100312007727583028F0EF2FF62F672F5850F9CF54
:10032200552331F076956795F795E7955A95D1F76C
:1003320000200AF4C9D05F910895689401C0E8943E
:10034200309760407040B1F0002426F0772312F419
:100352000094BAD0172E7EE1112032F07A95EE0F7A
:10036200FF1F661F111CF9CFEF2FF62F612D5F9330
:100372008ADF5F910895EE27FF27662777275F912F
:100382000895EFEFFFEF6FE77FEF5F910895EFEFD3
:10039200FFEF6FE77FE75F9108955F9386DF703825
:1003A20051F3903841F301240894791F23F41CF38C
:1003B20000203AF3ECCF0F921F932F933F934F936A
:1003C200112722279927689FA0018F9F302D410D69
:1003D200591F6B9F300D411D591F8E9F27D0BF9F04
:1003E20025D06A9F23D0BE9F1DD0AF9F1BD0AE9F4A
:1003F200110D291F391F491F591FE32FF42F652F94
:10040200522F4F913F912F911F910F9066232AF007
:10041200550FEE1FFF1F661F02C073954BF229DFB7
:100422005F910895100D211D391F02C0200D311D4D
:10043200491F591F08955F9338DF703821F4112046
:100442000AF49FCFA4CF903809F495CF01240894E1
:10045200970B1BF4D4F30020F3CF792F1F932F9324
:100462003F934F93112411272227332744275527DF
:1004720090E2AE17BF078607410730F0AE1BBF0BF5
:10048200860B410B089401C08894551F221F331F0D
:10049200111CAA1FBB1F881F441F9A9551F7F9010F
:1004A200612D4F913F912F911F91662332F0550F8D
:1004B200EE1FFF1F661F7A9543F2DBDE5F91089500
:1004C200F195E195F0400895F09560957095E1956C
:1004D200FF4F6F4F7F4F0895FE2FFF0FFF0B6F2FC0
:1004E2007F2F08950024112490E1AA0FBB1F001C46
:1004F200111C0E1A1F0A18F40E0E1F1E01C0A16055
:100502009A9599F7FD01D0010895E894B7FF04C0C8
:10051200A095B09511966894F7FDD2DFE3DFFD0157
:100522000EF4CEDF0895ED93FD936D937C930895C1
:00000001FF
