:060000000C9439000C9481
:1000060000000C9400000C9400000C9400000C946A
:1000160000000C9466000C9400000C9400000C94F4
:1000260000000C9400000C9400000C9400000C944A
:1000360000000C9400000C9400000C9400000C943A
:1000460000000C9400000C9400000C940000102793
:10005600E80364000A00010000100001100001001E
:10006600000000000400040066000000F894EE277B
:10007600ECBBF1E0FBBFEBBFE5BF8DE0A2E0BB2729
:10008600ED938A95E9F780E098E0A0E6ED93019775
:10009600E9F7EAE6F0E085919591009761F0A59180
:1000A600B59105901590BF01F00105900D9201974D
:1000B600E1F7FB01F0CFEFE5EDBFE8E0EEBFC0E60C
:1000C600D2E00C948400EA93EFB7EA93E0E0EDBD4A
:1000D600E1E1ECBDE1E0E51561F476B447B44CB876
:1000E6005D9BFECF7CB85D9BFECF4BBA78BAE2E053
:1000F6005E2E552011F4E1E05E2EE991EFBFE99105
:100106001895EFEFEABBE7BBE0E0EFBDE1E0EEBD3F
:10011600E0E0EDBDECBDE7BDE6BDEBBDEABDE9BD8A
:10012600E8BDE0E2E9BFE0E0EBB9E8E0EAB9E6E81D
:10013600E0BDE0E0E0BDECE0E9B97894FFCFFFCFA9
:00000001FF
