:080000000C9436000C94000082
:100008000C9400000C9400000C9400000C94000068
:100018000C9400000C9400000C9400000C94000058
:100028000C9400000C9400000C9400000C94000048
:100038000C9400000C9400000C9400000C94000038
:100048000C9400000C9400000C940000204D4943CF
:10005800524F50524F434553534F522010006002A5
:1000680054000000F894EE27ECBBF1E0FBBFEBBFB7
:10007800E5BF8DE0A2E0BB27ED938A95E9F780E024
:1000880098E0A0E6ED930197E9F7E4E6F0E08591C2
:100098009591009761F0A591B59105901590BF01D4
:1000A800F00105900D920197E1F7FB01F0CFEFE524
:1000B800EDBFE8E0EEBFC0E6D2E00C948000AA9362
:1000C800E881E2BBA89804C0AA93E881E2BBA89A99
:1000D800A998AA98A2E0B0E00E94AA00AA9AA898B3
:1000E800A99821960895A8E3EADFACE0E8DFA6E046
:1000F800E6DFA1E0E4DF0895EFEFE1BBE7E0E4BB72
:10010800F2DF5524E52DF0E0E05AFD4FE081E030C4
:10011800D9F0A0E8D4DF4424541480F0E52DF0E0B1
:10012800AFE0B0E0AE1BBF0BE42DF0E0EA0FFB1F21
:10013800E05AFD4FA081C8DF4394EECFA6E9B0E0B6
:100148000E94AA005394DECFFFCFFFCF109639F05C
:1001580080ED97E00197F1F7A8951197C9F70895F1
:00000001FF
