:080000000C942F000C94000089
:100008000C9400000C9400000C9400000C94000068
:100018000C9400000C9400000C9400000C94000058
:100028000C9400000C9400000C9400000C94000048
:100038000C9400000C9400000C9400000C94000038
:100048000C9400000C9400000C94000040792430BB
:10005800191202780010F894EE27ECBBF1E0FBBF10
:10006800EBBFE5BF8DE0A2E0BB27ED938A95E9F7EA
:1000780080E098E0A0E6ED930197E9F7EFE5EDBFA2
:10008800E8E0EEBFC0E6D2E00C946600AA93A9812E
:1000980073D0E1E078D07DD0A98183D0E2E073D03D
:1000A800049005BA8CE494E00197F1F7A88164D034
:1000B800E4E069D06ED0A88174D0E8E064D069D05B
:1000C80022960895E0E0EABBEBBBE7BBE8BBEFEFA5
:1000D800E4BBE0E0E5BBEFE0E1BBE0E0E2BBE0E28F
:1000E800E7B9E3EEE6B9E0E0E0BF7894369A3499F0
:1000F80004C08A92A92DCADFFACF44B05524AB2D8B
:10010800B0E0E6E00E946D022F0165B07724660C2E
:10011800771C660C771CE60DF71D662777270E946B
:10012800490146D0DF01CB01E0E0F0E060E874E48B
:100138000E941C02E0936002F093610260936202E5
:10014800709363020E9410018E2EF0E0A09160026D
:10015800B091610280916202909163020E947602DE
:100168000E9449010E94AF020E947C0121D00E9496
:1001780010019E2EBBCFFFCFB0E0EAE0F0E00E9476
:100188008E02BE2E0895E2BBEB2DF0E0EC5AFF4F35
:100198000895E491E068E5BB8CE494E00197F1F7F9
:1001A8000895BB27EAE0F0E00E949302BE2E08956E
:1001B800A0E0B0E088EC92E40E94CE0108955523B7
:1001C80042F4503811F4E0FF04C03196691F791FDA
:1001D8006BF050E8572711F45F93CAC05F3F31F0C6
:1001E800660F000C57956795752F08955F9300204B
:1001F8000AF0CAC0C3C050E8192E1522880F991FEB
:100208009527550F879550E8072E0522660F771F0B
:100218007527550F67950895689401C0E8945F9312
:10022800F2DF703818F07F3F08F4A2C056E1571B80
:10023800AAF4519558300EF4593030F0EFEFFFEF33
:100248006FEF7FE777F91AC077275523B9F0EE0FDC
:10025800FF1F661F771F5A95D1F710C077275830B0
:1002680028F0EF2FF62F672F5850F9CF552331F08C
:1002780076956795F795E7955A95D1F700200AF492
:1002880020D15F910895689401C0E8943097604048
:100298007040B1F0002426F0772312F4009411D1B5
:1002A800172E7EE1112032F07A95EE0FFF1F661FA0
:1002B800111CF9CFEF2FF62F612D5F938ADF5F9125
:1002C80008954F93AF01FD01DA01AB01BC01CA01EA
:1002D800402D012C142E4F910895EA0FFB1F681F23
:1002E8000895E095F0956095EF5FFF4F6F4F089583
:1002F8005F9381DF903849F150E81526703821F175
:10030800572F591B2BF112F4DCDFFACF583118F0B4
:10031800AA27BB278827583028F0AB2FB82F882763
:100328005850F9CF552329F08695B795A7955A9532
:10033800D9F7502D512572F0D0DF38F46795F7952D
:10034800E795739513F420C0BCDF43DF5F910895F0
:10035800D8F7FBCFEA1BFB0B680B51F010F40094A5
:10036800C0DF662392F3EE0FFF1F661F7A95CBF767
:10037800EE27FF27662777275F910895EFEFFFEFB6
:100388006FE77FEF5F910895EFEFFFEF6FE77FE78C
:100398005F9108955F932FDF703851F3903841F3E0
:1003A80001240894791F23F41CF300203AF3ECCFBE
:1003B8000F921F932F933F934F931127222799272B
:1003C800689FA0018F9F302D410D591F6B9F300DE5
:1003D800411D591F8E9F27D0BF9F25D06A9F23D0CC
:1003E800BE9F1DD0AF9F1BD0AE9F110D291F391F77
:1003F800491F591FE32FF42F652F522F4F913F911B
:100408002F911F910F9066232AF0550FEE1FFF1FA3
:10041800661F02C073954BF2D2DE5F910895100DEE
:10042800211D391F02C0200D311D491F591F089574
:100438005F93E1DE703821F411200AF49FCFA4CF36
:10044800903809F495CF01240894970B1BF4D4F342
:100458000020F3CF792F1F932F933F934F931124AD
:100468001127222733274427552790E2AE17BF07C5
:100478008607410730F0AE1BBF0B860B410B089473
:1004880001C08894551F221F331F111CAA1FBB1FB0
:10049800881F441F9A9551F7F901612D4F913F919B
:1004A8002F911F91662332F0550FEE1FFF1F661F15
:1004B8007A9543F284DE5F910895F195E195F040D5
:1004C8000895F09560957095E195FF4F6F4F7F4FB8
:1004D8000895EE230E2EFD0121F0F595E7950A9477
:1004E800E1F708956F2F660F660B762F08950024A5
:1004F800112490E1AA0FBB1F001C111C0E1A1F0A21
:1005080018F40E0E1F1E01C0A1609A9599F7FD01FF
:10051800D001089512D0EBDF0EF4CFDF0895E894F0
:10052800B7FF04C0A095B09511966894F7FDC5DF94
:10053800DEDFFD010EF4C1DF0895E894F7FF02C085
:10054800BCDF6894B7FF06C0A095B095119600F877
:10055800039400FA0895182E862F612D192E972FCF
:10056800712D1B2EBF2FF12D1A2EAE2FE12D0895C0
:00000001FF
