:040000000C942A0032
:100004000C9400000C9400000C9400000C9400006C
:100014000C9400000C9400000C9400000C9400005C
:100024000C9454000C9400000C9400000C940000F8
:100034000C9400000C9400000C9400000C9400003C
:100044000C9400000C9445000C9400000C940000E7
:10005400F894EE27ECBBF1E0FBBFEBBFE5BF8DE00E
:10006400A2E0BB27ED938A95E9F780E098E0A0E64B
:10007400ED930197E9F7EFE5EDBFE8E0EEBFC0E6E9
:10008400D2E00C946000EA93E1E0EEBDE0EEEDBD59
:10009400E0ECECBDE4E0E9BF959B02C0959801C09B
:1000A400959A0AC0EA93E0EEEDBDE0ECECBD959BB9
:1000B40002C0959801C0959AE9911895E0E0EABBD1
:1000C400EBBBE7BBE8BBE4BBE5BBE0E2E1BBE0E0E4
:1000D400E2BBE3BFE2BFECBFEFBDEEBDEDBDECBDE7
:1000E400E7BDE6BDEBBDEABDE9BDE8BDE2BDE5BDEA
:1000F400E4BDE3BDE9BFE5BFE4BFEAB9EAE0E8B9BE
:10010400E0E0E0BFE6B9EDB9E6BF7894FFCFFFCFFA
:00000001FF
